S01F00002F6465636F6465722F6275696C642F6D617837383030302E737265634D
S3151000E000000002202DEC0010B1EA00106BEC00109D
S3151000E0106DEC00106FEC001071EC001000000000A9
S3151000E02000000000000000000000000073EC00106B
S3151000E03075EC00100000000077EC001079EC001071
S3151000E0407DEC00107FEC001081EC001083EC0010CA
S3151000E05085EC001087EC001089EC00108BEC00109A
S3151000E0608DEC00108FEC001091EC001093EC00106A
S3151000E07095EC001097EC001099EC00109BEC00103A
S3151000E0809DEC00109FEC0010A1EC0010A3EC00100A
S3151000E090A5EC0010A7EC0010A9EC0010ABEC0010DA
S3151000E0A049EA001051EA0010B1EC0010B3EC001070
S3151000E0B0B5EC0010B7EC0010B9EC0010BBEC00107A
S3151000E0C0BDEC0010BFEC0010C1EC0010C3EC00104A
S3151000E0D0C5EC0010C7EC0010C9EC0010CBEC00101A
S3151000E0E0CDEC0010CFEC0010D1EC0010D3EC0010EA
S3151000E0F0D5EC0010D7EC0010D9EC0010DBEC0010BA
S3151000E100DDEC0010DFEC0010E1EC0010E3EC001089
S3151000E110E5EC0010E7EC0010E9EC0010EBEC001059
S3151000E120EDEC0010EFEC0010F1EC0010F3EC001029
S3151000E130F5EC0010F7EC0010F9EC0010FBEC0010F9
S3151000E140FDEC0010FFEC001001ED001003ED0010C7
S3151000E15005ED001007ED001009ED00100BED001095
S3151000E1600DED00100FED001011ED001013ED001065
S3151000E17015ED001017ED001019ED00101BED001035
S3151000E1801DED00101FED001021ED001023ED001005
S3151000E19025ED001027ED001029ED00102BED0010D5
S3151000E1A02DED00102FED001031ED001033ED0010A5
S3151000E1B035ED001037ED001039ED00103BED001075
S3151000E1C03DED00103FED001041ED001043ED001045
S3151000E1D045ED001047ED001049ED00104BED001015
S3151000E1E00000000000000000000000000000000019
S3151000E1F00000000000000000000000000000000009
S3151000E200004880472DEC00100348044B834202D08F
S3151000E210034B03B118477047C40B0020C40B0020F2
S3151000E220000000000548064B1B1AD90F01EBA3018D
S3151000E230491002D0034B03B118477047C40B002096
S3151000E240C40B00200000000010B5064C237843B91B
S3151000E250FFF7DAFF044B13B10448AFF30080012334
S3151000E260237010BD000C0020000000002881011052
S3151000E27008B5044B1BB104490448AFF30080BDE850
S3151000E2800840CFE700000000040C00202881011090
S3151000E2902DE9F043294A2A4E2A4F2B4D2B4C4FF08D
S3151000E2A0040C00EB060E87FB0E384FEAEE73C3EB39
S3151000E2B0E85302FB13E34FF0040803EB430E03EBA2
S3151000E2C08E032B444FEA932EA4FB0E9E4FEA5E1E3E
S3151000E2D0B8F1010802FB1E33EFD1CB1A990AA4FB41
S3151000E2E001E1490902FB113101EB060E4FEA9E23AB
S3151000E2F0A4FB03835B0902FB13E34FF0040803EB53
S3151000E300430E03EB8E032B444FEA932EA4FB0E9E73
S3151000E3104FEA5E1EB8F1010802FB1E33EFD1C31A95
S3151000E320980AA4FB00E04009BCF1010C02FB103076
S3151000E330B7D107480844C0B2BDE8F08300A49A03D9
S3151000E34078563412BFF48323C7AB2551F5832300C7
S3151000E350A7A39A03F0B5A9B08022002108A801F05E
S3151000E3605BFD104E104D114B01AC0027184656F8A8
S3151000E370041BFFF78DFF55F8043F207004F8017F4A
S3151000E380002BF3D101AA0A4908A802F087FB08A8B6
S3151000E39001F0D6FC08A982B2472000F065FA29B030
S3151000E3A0F0BD00BFF07C0110607D0110B6E4FF01E6
S3151000E3B0207A011030B51B4BABB0002215460192E6
S3151000E3C003F1C0041146187A01EB81020DF1A80C75
S3151000E3D00CEB820290B1A2F1A40EDD6842F8A05CAB
S3151000E3E0A2F19C0C5D691A69CEF80820CEF80C5083
S3151000E3F0DA699D690131CCE90252054618339C420F
S3151000E400E1D165B101EB810292000432019192B221
S3151000E41001A94C2000F028FA00202BB030BD0422B0
S3151000E420F6E700BF200C002038B54C69002C43D00D
S3151000E4302A4D00232A46D068844219D0107A183201
S3151000E440B0B10133082BF6D1002000F0C7FB012034
S3151000E45000F0C4FB022000F0C1FB002000F0B2FB6C
S3151000E4601F493C22452000F0FFF94FF0FF3038BD20
S3151000E47003EB430205EBC2024868D4600124147210
S3151000E4808C68C2E90404013303EB430305EBC302B2
S3151000E490C868096945F833001248516000F0A6FAB9
S3151000E4A00E491048C82200F0A5FA00221146532042
S3151000E4B000F0DAF9002038BD204600F08FFB01206D
S3151000E4C000F08CFB022000F089FB204600F07AFB5E
S3151000E4D005494622452000F0C7F9C6E7200C002062
S3151000E4E0847A011000C007103C7A011070B50E46F0
S3151000E4F0A0B0802200210446684601F08DFC3568E4
S3151000E5001F490C3C16224720A4B200F0ADF965B1A4
S3151000E5101C4B03F1C00002E01833834213D0DA68B3
S3151000E5209542F9D11A7A002AF6D0174913224720B4
S3151000E53000F09AF92246442006F10C0100F094F9F5
S3151000E540002020B070BD002000F048FB012000F034
S3151000E55045FB022000F042FB002000F033FB0B4984
S3151000E5602A46684602F09AFA684601F0E9FB6946BF
S3151000E57082B2452000F078F94FF0FF30E1E700BF96
S3151000E580C47A0110200C0020DC7A0110F07A0110F8
S3151000E59030B5234C234DB1B000F010FA2248C822F2
S3151000E5A0214600F025FA2368AB4205D100F028FA7F
S3151000E5B0002828DB31B030BD1C491E22472000F050
S3151000E5C053F94FF0FF304FF0FF314FF0000C25603C
S3151000E5D06B4630AAC3E90201C3E9040103F818CB5C
S3151000E5E09342F7D1C0226946114801F093FE0E48B6
S3151000E5F000F0FCF90A490C48C82200F0FBF900F0BB
S3151000E600FFF90028D6DA002000F0E8FA012000F021
S3151000E610E5FA022000F0E2FA002000F0D3FAFEE755
S3151000E620200C0020EFBEADDE00C007101C7B0110D1
S3151000E630280C002030B5BBB0802200211AA801F0AA
S3151000E640EBFBFFF7A5FF4A494A4C4B4D10224720DA
S3151000E65000F00AF906222146472000F005F90020AD
S3151000E66000F0BCFA012000F0B9FA022000F0B6FA68
S3151000E670012000F0A7FA0DF1020201A90DF1010027
S3151000E68000F030F903460020834224DB9DF8013068
S3151000E6904C2B4FF0000057D0532B41D0442B2BD08E
S3151000E6A0002000F09BFA012000F098FA022000F0FA
S3151000E6B095FA002000F086FA9DF8012029461AA83E
S3151000E6C002F0ECF91AA801F03BFB1AA982B2452018
S3151000E6D000F0CAF8BEE700F081FA012000F07EFAD9
S3151000E6E0022000F07BFA002000F06CFA2349202269
S3151000E6F0452000F0B9F8ADE700F070FA012000F0FF
S3151000E7006DFA022000F06AFA002000F05BFA02208F
S3151000E71000F058FABDF8020001A9FFF7E7FE99E7E5
S3151000E72000F05CFA012000F059FA022000F056FAC7
S3151000E730002000F047FA012000F044FABDF802006C
S3151000E74001A9FFF771FE85E700F048FA012000F0F5
S3151000E75045FA022000F042FA012000F033FA0220B6
S3151000E76000F030FAFFF7F6FDFFF724FE72E700BF60
S3151000E7703C7B0110507B01107C7B0110587B0110F3
S3151000E78081B32DE9F047DFF8608082B00F46451E51
S3151000E790002444F2251902AE00F048F900281ADBCD
S3151000E7A00134BC4205F8010F18D0E3B2002BF3D1A7
S3151000E7B0CDF804900DF1040A1AF8010B00F03CF99B
S3151000E7C0B245F9D1D8F80030986801F021FC00F074
S3151000E7D02DF90028E4DA02B0BDE8F087002002B077
S3151000E7E0BDE8F087002070471000002000B583B008
S3151000E7F00023019300F01AF9C0B225288DF8040001
S3151000E800F8D100F013F9022103460DF106008DF838
S3151000E8100530FFF7B5FF9DF80500413818BF4FF0DA
S3151000E820FF30C0B203B05DF804FB00BFF8B591B17C
S3151000E83017460E46451E0024013415F8010F00F048
S3151000E840FBF8B442E3B206D0002BF5D1002FF3D07B
S3151000E850FFF7CCFFF0E7034B1B68986801F0D8FB75
S3151000E8600020F8BD100000202DE9F04182B02523CC
S3151000E8700646174688468DF804308DF80500ADF823
S3151000E880062001AC02AD14F8010B00F0D5F8AC422D
S3151000E890F9D1134B1B68986801F0BAFB412E02D0D0
S3151000E8A0472E04D197B9002002B0BDE8F081FFF7DA
S3151000E8B09DFF002FF7D0012239464046FFF7B6FFDD
S3151000E8C0FFF794FF002002B0BDE8F0810022394620
S3151000E8D04046FFF7ABFF002002B0BDE8F08100BF55
S3151000E8E010000020F0B583B000230093002848D014
S3151000E8F00E461546044600F099F8C0B225288DF844
S3151000E9000000F8D100F092F802218DF801000DEB0D
S3151000E9100100FFF735FF9DF80130237015B1BDF8E2
S3151000E92002202A80412B02D1002003B0F0BD44F210
S3151000E9302513019301AC02AD14F8010B00F07CF81D
S3151000E940A542F9D1104F3B68986801F061FBBDF8FC
S3151000E95002100029E8D026B13046FFF711FF002833
S3151000E9600FDB44F22513019301AC02AD14F8010B31
S3151000E97000F062F8A542F9D13B68986801F048FBAF
S3151000E980D2E74FF0FF30D0E710000020094A536A53
S3151000E990D90703D5516A21F0010151629B0700D4B2
S3151000E9A07047044A0448536A23F00203536201F085
S3151000E9B0CDBE00BF00900240947B011008B50849F7
S3151000E9C0172000F039FB074B4FF400021A604FF482
S3151000E9D0407000F075FCBDE80840034800F09CBE8E
S3151000E9E08DE9001000E100E000A0024009F094BBA0
S3151000E9F000F064BC0B4611461A4600F05DBC00BF21
S3151000EA0010B5084802224FF4E13100F0DDFE04464D
S3151000EA1008B9204610BD2146034802F071F8204679
S3151000EA2010BD00BF00200440BC7B0110014800F05F
S3151000EA30C3BF00BF00200440024A53681B06FCD423
S3151000EA401062704700200440002000F0BBBD00BFDC
S3151000EA50012000F0B7BD00BF10B5002000F034FB58
S3151000EA60012000F031FB402000F02EFB0D4B02225E
S3151000EA7018684FF4E13100F0A7FE041E03DB00F026
S3151000EA80B9F8044608B1204610BD00F07BF80446DC
S3151000EA900028F8D1044B05484322DA6000F092FAB8
S3151000EAA0204610BD0000002000440040400D030029
S3151000EAB000BF70474FF0FF30704700BF4FF0FF3078
S3151000EAC0704700BF4FF0FF30704700BF4FF0FF3068
S3151000EAD0704700BF2DE9F04100BB002A17460546D6
S3151000EAE017DD124E0C4601E0AF4214D0304600F04E
S3151000EAF063FFC1B22170304600F060FFA04614F8E3
S3151000EB00013B0D2B05F10105EED10A2388F80030E3
S3151000EB102846BDE8F0813846BDE8F08101F09CFA40
S3151000EB20092303604FF0FF30F3E700BF00200440D5
S3151000EB30F8B5431E012B1CD8002A174617DD531EA5
S3151000EB400F4E4C1ECD1804E0304600F037FFAC4295
S3151000EB500DD014F8011F0A29F6D10D21304600F008
S3151000EB602DFF2178304600F029FFAC42F1D138460E
S3151000EB70F8BD01F071FA092303604FF0FF30F8BDBC
S3151000EB8000200440F8B50D4B1F68A7B100250C4CAA
S3151000EB902E46D4E9000100F0E7FC204600F0C2FB47
S3151000EBA00135002818BF6FF00706BD4204F10C04AA
S3151000EBB0EFD13046F8BD3E463046F8BDD07D011047
S3151000EBC0D47D0110044B00EB400003EB800253F898
S3151000EBD02000516800F0DEBCD47D0110044B00EB20
S3151000EBE0400003EB800253F82000516800F0BCBCD3
S3151000EBF0D47D0110F8B50B4B1F6887B100240A4D60
S3151000EC002646284600F08EFB0134002818BF6FF008
S3151000EC100706BC4205F10C05F3D13046F8BD3E4659
S3151000EC203046F8BDF87D0110FC7D01104748854639
S3151000EC304748804780B94749474A484B9B1A03DDE6
S3151000EC40043BC858D050FBDC4549464A0020914247
S3151000EC50BCBF41F8040BFAE7434880474348804756
S3151000EC6043488047FFF7FEFFFEE7FEE7FEE7FEE7B5
S3151000EC70FEE7FEE7FEE7FEE7FEE7FEE7FEE7FEE756
S3151000EC80FEE7FEE7FEE7FEE7FEE7FEE7FEE7FEE746
S3151000EC90FEE7FEE7FEE7FEE7FEE7FEE7FEE7FEE736
S3151000ECA0FEE7FEE7FEE7FEE7FEE7FEE7FEE7FEE726
S3151000ECB0FEE7FEE7FEE7FEE7FEE7FEE7FEE7FEE716
S3151000ECC0FEE7FEE7FEE7FEE7FEE7FEE7FEE7FEE706
S3151000ECD0FEE7FEE7FEE7FEE7FEE7FEE7FEE7FEE7F6
S3151000ECE0FEE7FEE7FEE7FEE7FEE7FEE7FEE7FEE7E6
S3151000ECF0FEE7FEE7FEE7FEE7FEE7FEE7FEE7FEE7D6
S3151000ED00FEE7FEE7FEE7FEE7FEE7FEE7FEE7FEE7C5
S3151000ED10FEE7FEE7FEE7FEE7FEE7FEE7FEE7FEE7B5
S3151000ED20FEE7FEE7FEE7FEE7FEE7FEE7FEE7FEE7A5
S3151000ED30FEE7FEE7FEE7FEE7FEE7FEE7FEE7FEE795
S3151000ED40FEE7FEE7FEE7FEE7FEE7FEE7000002202D
S3151000ED502DEE0010E881011000000020C40B0020E9
S3151000ED60000C00203C17002031EE00106504011045
S3151000ED7035E600100B4A08B50346106828B10A4953
S3151000ED8003448B4207D8136008BD08480649106033
S3151000ED9003448B42F7D901F05FF90C2303604FF05F
S3151000EDA0FF3008BDE80C002000F0012040170020BD
S3151000EDB06FF01000704700BF6FF01000704700BF73
S3151000EDC04FF080439B6803F46063B3F5206F1FD048
S3151000EDD012D9B3F5406F18D0104A1149B3F5606FC8
S3151000EDE008BF0A464FF080430E499B68C3F382134F
S3151000EDF022FA03F30B6070476BB1084947F23052A1
S3151000EE00B3F5C06F18BF0A46ECE74FF40042E9E7C6
S3151000EE104FF4E102E6E7044AE4E700BF00E1F50536
S3151000EE20C06878043C1700200087930300207047C1
S3151000EE3010B50A4C0A4BA3600A4800F06BFCD4F8D4
S3151000EE40883043F47003C4F88830BFF34F8FBFF394
S3151000EE506F8FFFF7B5FFFFF7FFFD10BD00ED00E068
S3151000EE6000E0001000A0024038B54FF0E02318492A
S3151000EE709C691A6922F480320A601A69D2071FD473
S3151000EE806FF07F4405225C614FF080759C611A61BA
S3151000EE90104B114A19680023A0FB010108F048FC29
S3151000EEA00E4BB0FBF5F205FB120084421A600AD82D
S3151000EEB01A6801321A602544094B281A186038BDA1
S3151000EEC05D690135E4E7064B201A186038BD00BFAE
S3151000EED0F00C00203C17002040420F0004000020D8
S3151000EEE0F40C002010B50C4C0C4B22681960002A4B
S3151000EEF00EDC08B9002010BDFFF7B6FF2368002B03
S3151000EF00F8DD4FF0E022136943F002031361F1E7D5
S3151000EF106FF0050010BD00BF04000020EC0C0020AF
S3151000EF20F8B5174C2368002B1EDB26682EBB154B35
S3151000EF304FF0E0251B68AA699A421ED8124F3B680B
S3151000EF405BB16FF00F009847104B3E601A682A614C
S3151000EF504FF0FF3323600020F8BD0C4A4FF0FF330B
S3151000EF6012682A612360F6E7074C2368002BF2D05B
S3151000EF700020984700232360EDE76FF00500F8BDE9
S3151000EF8004000020F40C0020EC0C0020F00C0020F3
S3151000EF9010B5094C236823B16FF00F009847002372
S3151000EFA02360064A064B10684FF0E0214FF0FF32FF
S3151000EFB008611A6010BD00BFEC0C0020F00C002098
S3151000EFC00400002038B5184C2268002A29DC08B93C
S3151000EFD0002038BDFFF748FF4FF0E02202E013692A
S3151000EFE0DB031AD42368002BF9DC104B1A684FF098
S3151000EFF0E0218B699342FCD80D4D2B6823B16FF03D
S3151000F0000F00984700232B600A4B4FF0E022196837
S3151000F01011614FF0FF332360DAE72368013B236069
S3151000F020E0E76FF0050038BD04000020F40C002066
S3151000F030EC0C0020F00C0020F8B50F4E0F4BB26808
S3151000F0409A4204460D4600F1100707D018460C499F
S3151000F0504FF4F07201F05EF90346B060002C43F8ED
S3151000F060275007DB074A6109012304F01F04A34058
S3151000F07042F82130F8BD00BF00ED00E0000E002080
S3151000F08000E0001000E100E03F2808D90D4A4038A2
S3151000F090D168C0B2012383400B43D36070471F2849
S3151000F0A04FF0804207D92038916CC0B201238340BB
S3151000F0B00B4393647047516A012383400B43536299
S3151000F0C0704700BF000008403F2809D90E49403854
S3151000F0D0CB68C0B20122824023EA0203CB6070479C
S3151000F0E01F284FF0804108D920388B6CC0B20122FE
S3151000F0F0824023EA02038B6470474B6A01228240E6
S3151000F10023EA02034B6270470000084010B5072837
S3151000F1100AD8DFE800F00C09092333475B04BDE881
S3151000F1201040364800F0FEB86FF0020010BD4FF0E8
S3151000F13080440021A36843F48023A3604FF47A70BF
S3151000F140FFF7D0FE03E0FFF7EBFE063052D1A368BF
S3151000F1505901F8D5FFF71CFF002010BD00214FF410
S3151000F1607A70FFF7BFFE4FF0804403E0FFF7D8FE3A
S3151000F17006303FD1A3689A00ECD4F7E74FF08044ED
S3151000F1800021A36843F40023A3604FF47A70FFF7BD
S3151000F190A9FE03E0FFF7C4FE06302BD1A3681B01BE
S3151000F1A0F8D5D7E74FF080440021A36843F48013C5
S3151000F1B0A3604FF47A70FFF795FE03E0FFF7B0FEF9
S3151000F1C0063017D1A368D800C4D4F7E74FF08044AF
S3151000F1D00021A36843F40033A3604FF47A70FFF75D
S3151000F1E081FE03E0FFF79CFE063003D1A3689B0166
S3151000F1F0B0D4F7E76FF0090010BD00BF447E0110D0
S3151000F2003F2809D940380F49C0B2012282408A608E
S3151000F2108B681A42FCD170471F280AD92038C0B211
S3151000F22001224FF0804182404A644B6C1A42FCD155
S3151000F230704701224FF0804182404A604B681A4263
S3151000F240FCD170470000084082072CD100F17043B2
S3151000F250B3F5002F84460A4622D3A0F18453B3F5A2
S3151000F260804F20D243F6F073034003F5002300B518
S3151000F2700E4883B0614608F053FF4FF08042136882
S3151000F28043F04003136013685B06FCD44FF08052C2
S3151000F290074B126801921B68019303B05DF804FBDB
S3151000F2A0044B0340E3E76FF0020070470090024002
S3151000F2B000200010F0FF070008F02ABF08F024BF56
S3151000F2C000F000B810F4407306D0054A11684A6A77
S3151000F2D0134300204B6270476FF00200704700BF67
S3151000F2E008000020C10710B5044608D4A2070BD4A5
S3151000F2F063070ED42046BDE8104000F0CDBC0020B8
S3151000F300FFF7E2FEA207F3D50120FFF7DDFE630744
S3151000F310F0D54020FFF7D8FE2046BDE8104000F09B
S3151000F320BBBC00BFF8B58C4B05689D4204464BD05C
S3151000F33003F580539D4214D0884B9D4200F0A28065
S3151000F34003F500739D422CD04FF0FF3301209840F7
S3151000F350FFF7C8FFA17A6268284600F055F950B148
S3151000F360F8BD0220FFF7BEFFA17A6268284600F0BA
S3151000F3704BF90028F4D17A4B2268217A9A421AD096
S3151000F3806268284600F056F90028E9D1637A042B02
S3151000F39000F2DE80DFE813F0A200AD00BC00C4006E
S3151000F3A0D4000820FFF79EFFA37A53B16C4B226856
S3151000F3B0217A9A42E4D101296AD002290AD0002979
S3151000F3C07DD06FF01000F8BD0120FFF78BFFA17AFA
S3151000F3D06268C1E7636863484FEA430C1A01066A1C
S3151000F3E00CF0020C02F0200242EA0C0232430262D6
S3151000F3F08268C3F3400343EA0C0313438360637AC2
S3151000F400042BDED8DFE803F0291E031E0300636811
S3151000F4105448DA00066A02F0100203F0010C42EAC0
S3151000F4200C0226EA020202629A005B0102F0040252
S3151000F43003F040031343026A22EA03030362D1B9BD
S3151000F4400846F8BD47486368076ADA0003F0010604
S3151000F45002F010023E433243E5E7626841489300EA
S3151000F4605201066A03F0040302F0400213433343C9
S3151000F47003620029E4D06268E17A2846BDE8F840C4
S3151000F48000F00EB90420FFF72DFFA17A626863E73A
S3151000F490636834484FEA430C1A01066A0CF0020CF2
S3151000F4A002F0200242EA0C02324302628268C3F37F
S3151000F4B0400343EA0C0322EA030383609FE7636871
S3151000F4C028484FEA430C1A01066A0CF0020C02F0A7
S3151000F4D0200242EA0C0226EA0202E6E72B6E626876
S3151000F4E023EA02032B666B6E23EA02036B66217A0C
S3151000F4F0A5E72A6E63681A432A666A6E22EA030231
S3151000F5006A66D5F8B8201343C5F8B830217A96E75D
S3151000F5102A6E636822EA03022A666A6E1A43EFE7C6
S3151000F5202B6E626813432B666B6E23EA02036B66BF
S3151000F530D5F8B83023EA0203C5F8B830217A7EE749
S3151000F5402B6E626823EA02032B666B6E1343EEE79B
S3151000F5506FF00200F8BD00BF0080004000040840B4
S3151000F56000060840006C0040084A904201D000F0A6
S3151000F57043B8074810B4046ACA0001F001012143D8
S3151000F58002F010030B4310BC0362704700060840DC
S3151000F590006C0040094A904201D000F02FB810B418
S3151000F5A0074CCA00206A02F0100201F0010142EA7B
S3151000F5B0010320EA0303236210BC704700060840CB
S3151000F5C0006C004000F07ABB034A904201D000F074
S3151000F5D017B8024AD161704700060840006800401B
S3151000F5E0034B984201D000F00DB8024BD869704712
S3151000F5F00006084000680040C1617047016270470C
S3151000F60081647047006C704759B1012906D1D0F852
S3151000F610C0301343C0F8C030002070476FF00200AE
S3151000F6207047D0F8C03023EA0203C0F8C03000207B
S3151000F630704700BF036B13430363426005292CD840
S3151000F640DFE801F00A12191F2503C0F88820826727
S3151000F650C266826000207047426142600267C267DC
S3151000F660C0F8882000207047026142600267C267B6
S3151000F670C0F88820EEE7C0F88820C267026782606B
S3151000F680E8E7C0F88820C267C2668260E2E7C0F881
S3151000F6908820826702678260DCE76FF0020070479D
S3151000F6A0032929D8DFE801F0280F021CD0F8B03062
S3151000F6B023EA0203C0F8B030D0F8B4301343C0F8D0
S3151000F6C0B43000207047D0F8B0301343C0F8B030D3
S3151000F6D0D0F8B43023EA0203C0F8B43000207047E3
S3151000F6E0D0F8B0301343C0F8B030D0F8B43013436C
S3151000F6F0C0F8B43000207047D0F8B03023EA0203C7
S3151000F700C0F8B030D0F8B43023EA0203C0F8B430F1
S3151000F7100020704700F002B800F018B8D0F8003199
S3151000F720012223F00103C0F80031C0F80027D0F8F9
S3151000F7300031DA03FBD5D0F8003143F00103C0F8ED
S3151000F7400031D0F80031DB03FBD57047D0F800311B
S3151000F75023F00103C0F80031704700BF08B5164BFF
S3151000F760984210D0154B984214D0154B984218D089
S3151000F770144B98421CD14420FFF742FD4420FFF75A
S3151000F78083FC002008BD0B20FFF73AFD0920FFF788
S3151000F7907BFCF6E70C20FFF733FD0A20FFF774FC1D
S3151000F7A0EFE71C20FFF72CFD2120FFF76DFCE8E7A3
S3151000F7B06FF0020008BD00BF002004400030044076
S3151000F7C0004004400014084070B504460E46154625
S3151000F7D0FFF7C4FFA0BB022D1DD0042D02D10620B9
S3151000F7E0FFF794FC1E4B9C421BD01E4B9C4228D00C
S3151000F7F01D4B9C422CD01D4B9C421FD11C48FFF721
S3151000F80091FD4420FFF760FC2A4631462046BDE8AC
S3151000F810704000F0F5B80520FFF778FC104B9C42BD
S3151000F820E3D11448FFF77EFD0920FFF74DFC2A4669
S3151000F83031462046BDE8704000F0E2B86FF0020095
S3151000F84070BD0D48FFF76EFD0A20FFF73DFCDBE7A4
S3151000F8500A48FFF767FD2120FFF736FCD4E700BF03
S3151000F86000200440003004400040044000140840CA
S3151000F870147E0110387E01102C7E0110207E01109E
S3151000F880314B984210B5044616D003F58053984272
S3151000F89012D003F5805398420ED003F57533984273
S3151000F8A007D10523022A436145D0042A13D0002A22
S3151000F8B041D06FF0020010BD042AFAD0204600F0A5
S3151000F8C0F5F80028F7DD236843F400432360236826
S3151000F8D01B03FCD510BD02684FF480331A43026037
S3151000F8E00068B3FBF1F340F4001001FB03F2B1F52D
S3151000F8F0166F2060C2F5803216D900206061ABB950
S3151000F9000123124A1361106800F44030B0F5803FAD
S3151000F91005D0136813F4403FCBD14FF4E1000B4BE5
S3151000F9201B69B0FBF3F0CCE701206061B2EB510F1D
S3151000F930E7D90133E5E74FF4E103B3FBF1F301FB3C
S3151000F94003F2C2F5E102DAE7002004400014084091
S3151000F950124B98421CD003F58053984218D003F5E9
S3151000F9608053984214D003F57533984212D1036828
S3151000F97003F44033B3F5803F05D0036813F4403FDA
S3151000F98008D14FF4E103064A1069B3FBF0F0704753
S3151000F99000F0C4B86FF00200704700BF00200440AA
S3151000F9A00014084000F0E6B800F0F4B800F004B90E
S3151000F9B000F048B900F04EB900F008B800F012B8DF
S3151000F9C000F052B900F054B900F058B910B5044619
S3151000F9D02046FFF7F5FF0028FAD02046BDE8104074
S3151000F9E0FFF7E6BF38B504460D462046FFF7EAFF97
S3151000F9F00028FAD029462046BDE83840FFF7DABF7E
S3151000FA00F8B50F46012106461546FFF7DDFF0446F9
S3151000FA1008B12046F8BD08213046FFF7C3FF04465B
S3151000FA200028F6D101463046FFF7C0FF04460028ED
S3151000FA30EFD101463046FFF7B7FF04460028E8D15C
S3151000FA402A4639463046FFF71BFF002822DB154BA6
S3151000FA509E4221D003F580539E421FD003F580535A
S3151000FA609E421DD003F575339E4214BF4FF0FF33EF
S3151000FA70032303EB83030C4A9B0003F10806D018FB
S3151000FA80B71800214FF0FF3595517D60D150416078
S3151000FA900174BEE70446BCE72346EAE70123E8E71C
S3151000FAA00223E6E700200440E00F00200523012A88
S3151000FAB010B4436123D0022A10D0E2B9154B1A684C
S3151000FAC05208B2FBF1F301FB132213B1B2EB510F43
S3151000FAD000D9013310BC0361FFF73ABF04684FF435
S3151000FAE0E10344F40034B3FBF1F301FB03F2C2F576
S3151000FAF0E1020460E9E76FF0020010BC7047046889
S3151000FB00054AB2FBF1F344F48034046001FB13227E
S3151000FB10DBE700BF3C170020C0687804036803F4D5
S3151000FB204033B3F5803F17D0036813F4403F0CD031
S3151000FB30036803F44033B3F5003F08BF4FF4E10305
S3151000FB400FD10069B3FBF0F07047084B00691B68D2
S3151000FB505B08B3FBF0F07047054B0069B3FBF0F0A0
S3151000FB60704703686FF00200704700BF3C17002013
S3151000FB70C068780405390329024607D8036823F4B8
S3151000FB80406343EA81230020136070476FF0020040
S3151000FB90704700BF51B1012905D1036843F4805362
S3151000FBA00360002070476FF002007047036823F46B
S3151000FBB0805303600020704704293FD8DFE801F026
S3151000FBC0111724310300036843F010030360036820
S3151000FBD043F020030360036843F0400303600020F2
S3151000FBE07047036823F01003036000207047036812
S3151000FBF043F010030360036823F0200303600368D7
S3151000FC0023F040030360EAE7036843F01003036040
S3151000FC10036823F020030360036843F04003036086
S3151000FC20DDE7036843F010030360036843F0200325
S3151000FC300360036823F040030360D0E76FF002000F
S3151000FC40704700BF4368DB0654BF006A6FF00C00B4
S3151000FC50704700BF0246406810F080000CBF11626A
S3151000FC606FF00B00704700BF4068C0F30320704769
S3151000FC704068C0F30330C0F1080070474B1E072BD5
S3151000FC80024606D8036823F00F03194300201160BB
S3151000FC9070476FF00200704710B5064C217831B9E5
S3151000FCA005484FF4007200F0B7F8012323700020C6
S3151000FCB010BD00BF30100020341200200328F8B504
S3151000FCC09ABF104B53F82050002507462846FFF7D9
S3151000FCD087FC044601462846FFF776FC8CB10A4E8F
S3151000FCE00A4D06EBC71605EBC715E30703D52B68B8
S3151000FCF00BB130689847640806F1040605F104054F
S3151000FD00F3D1F8BD507E01103410002034120020BB
S3151000FD1000000000000000000000000000000000CD
S3151000FD2000000000000000000000000000000000BD
S3151000FD3000000000000000000000000000000000AD
S3151000FD4030B490F800F020F007016FF0000C10F0BE
S3151000FD50070491F820F040F048804FF000046FF04F
S3151000FD600700D1E9002391F840F000F1080082FA6B
S3151000FD704CF2A4FA8CF283FA4CF3A2FA8CF34BBB36
S3151000FD80D1E9022382FA4CF200F10800A4FA8CF2AF
S3151000FD9083FA4CF3A2FA8CF3E3B9D1E9042382FA7D
S3151000FDA04CF200F10800A4FA8CF283FA4CF3A2FA92
S3151000FDB08CF37BB9D1E9062301F1200182FA4CF2CA
S3151000FDC000F10800A4FA8CF283FA4CF3A2FA8CF331
S3151000FDD0002BC6D0002A04BF04301A4612BAB2FA53
S3151000FDE082F200EBD20030BC7047D1E9002304F058
S3151000FDF00305C4F100004FEAC50514F0040F91F88D
S3151000FE0040F00CFA05F562EA05021CBF63EA050329
S3151000FE1062464FF00004AAE7830730B547D0541E58
S3151000FE20002A3ED0CAB2034601E0013C39D303F89A
S3151000FE30012B9D07F9D1032C2CD9CDB205EB052545
S3151000FE400F2C05EB054535D9A4F1100222F00F0C45
S3151000FE5003F1100EE6444FEA121C1A46C2E9005589
S3151000FE60C2E9025510327245F8D10CF1010214F0B4
S3151000FE700C0F03EB021204F00F0C13D0ACF10403B9
S3151000FE8023F003030433134442F8045B9342FBD17B
S3151000FE900CF003042CB1C9B21C4403F8011BA34295
S3151000FEA0FBD130BD64461346002CF4D1F9E7034666
S3151000FEB01446C0E71A46A446E0E700BFB1F90C2085
S3151000FEC0F8B516070C46074649D4496842F400634C
S3151000FED00029A3815FDDA56A002D3ED0002112F412
S3151000FEE080523E683960E16961D101233846A847DE
S3151000FEF0451C02466BD0B4F90C30A56AE169580767
S3151000FF0005D56368D21A236B0BB1E36BD21A0023A3
S3151000FF103846A847411C4CD13968B4F90C301D2914
S3151000FF203FD82F4ACA40D2073BD52269226023F414
S3151000FF300062A281DD044FF00002626001D5002943
S3151000FF4043D0216B3E6041B104F14003994202D087
S3151000FF50384600F0E3F8002323630020F8BD0E694D
S3151000FF60002EFAD00D680E6092070CBF4B69002365
S3151000FF70AD1B8B600CE0D4F824C0E1692B463246E9
S3151000FF803846E047B0F1000CA5EB0C05664406DDDB
S3151000FF90002DF0DCE1E7E16B00299CDCDDE7B4F92C
S3151000FFA00C3043F04003A3814FF0FF30F8BD226DB3
S3151000FFB0A5E7B4F90C302269226023F40062A2810D
S3151000FFC0DB044FF000026260BBD52065B9E73B68E1
S3151000FFD0002B90D01D2B01D0162BE0D13E60BCE734
S3151000FFE00100402010B5044682B008B1436B53B1EE
S3151000FFF0B1F90C0008B902B010BD204602B0BDE838
S315100100001040FFF75BBF019100F042FB0199EFE74A
S31510010010A0B138B50C4B1D6804460DB16B6B4BB1D5
S31510010020B4F90C0000B938BD21462846BDE8384060
S31510010030FFF744BF284600F02BFBF1E7034A0449BA
S31510010040044800F097BD00BF1000002038010020C1
S31510010050E5FF001018000020014B1868704700BF1B
S31510010060100000202DE9F84306460820894600F0C5
S31510010070EBF9DFF89C800546304600F01BFAD8F8FC
S3151001008008305F6827F00307A7F11104A4EB0904F0
S315100100902C44B4FBF5F4013C05FB04F4A54208DC41
S315100100A00021304600F040FDD8F808303B44984214
S315100100B005D0304600F000FA0020BDE8F883614211
S315100100C0304600F031FD01300FD0124AD8F8083011
S315100100D03F1B47F001075F60136830461B1B136017
S315100100E000F0EAF90120BDE8F8830021304600F05E
S315100100F01BFDD8F80820831A0F2BDADD43F0010314
S315100101005360054B03491B68C01A0860D1E700BF4D
S3151001011048010020741500205005002000297CD0CC
S31510010120F8B50C46064600F0C5F954F8043C764F6E
S31510010130A4F1080523F001016818D7F808C0426830
S31510010140844522F0030200F08380DB07426000EB56
S31510010150020C33D454F8084CDCF804302D1B21441E
S31510010160AC6807F1080C644503F0010364D0D5F8B7
S315100101700CE0C4F80CE0CEF80840002B00F08180AA
S3151001018041F001036B600160B1F5007F22D27868FE
S31510010190CB080122490901338A40024357F833102B
S315100101A07A6007EBC302083AC5E9021247F83350E1
S315100101B0CD603046BDE8F84000F07EB9DCF8043079
S315100101C0DB072BD541F00103B1F5007F44F8043C60
S315100101D00160DCD3B1F5206F4FEA512353D28B095D
S315100101E003F1390003F13802C300F818FB58083837
S315100101F0984203D161E09B68984204D05A6822F074
S3151001020003028A42F7D8D868C5E902308560DD60F5
S315100102103046BDE8F84000F04FB97047114407F178
S31510010220080C836863453FD0C268DA60936041F079
S3151001023001036B606950A7E7002B5FD10A44D0E92F
S315100102400213CB60996042F001036B60AA50B0E7CC
S315100102500A44D90707D454F8083CED1A1A44D5E9CB
S315100102600213CB60996042F001036B60274BBD60AE
S315100102701B6893429DD8264B30461968FFF7F2FE4C
S3151001028097E71144CDE7142B08D9542B1DD80B0B26
S3151001029003F16F0003F16E02C300A6E703F15C00E0
S315100102A003F15B02C300A0E741F00103C7E904555E
S315100102B0C5E902CC6B6069507BE77968921001241D
S315100102C004FA02F20A437A609EE7B3F5AA7F06D8CA
S315100102D0CB0B03F1780003F17702C30085E740F2F7
S315100102E05452934206D88B0C03F17D0003F17C0224
S315100102F0C3007AE74FF47E737E2276E741F001035D
S315100103006B60016055E700BF4801002054050020CD
S3151001031070150020844641EA000313F003036DD1E2
S31510010320403A41D351F8043B40F8043B51F8043BA1
S3151001033040F8043B51F8043B40F8043B51F8043BA8
S3151001034040F8043B51F8043B40F8043B51F8043B98
S3151001035040F8043B51F8043B40F8043B51F8043B88
S3151001036040F8043B51F8043B40F8043B51F8043B78
S3151001037040F8043B51F8043B40F8043B51F8043B68
S3151001038040F8043B51F8043B40F8043B51F8043B58
S3151001039040F8043B51F8043B40F8043B51F8043B48
S315100103A040F8043B403ABDD2303211D351F8043BE8
S315100103B040F8043B51F8043B40F8043B51F8043B28
S315100103C040F8043B51F8043B40F8043B103AEDD297
S315100103D00C3205D351F8043B40F8043B043AF9D2E8
S315100103E0043208D0D2071CBF11F8013B00F8013BBB
S315100103F001D30B8803806046704700BF082A13D3C8
S315100104008B078DD010F003038AD0C3F10403D21ADF
S31510010410DB071CBF11F8013B00F8013B80D331F813
S31510010420023B20F8023B7BE7043AD9D3013A11F893
S31510010430013B00F8013BF9D20B7803704B784370FE
S315100104408B78837060467047082802D14FF480502C
S31510010450704708B5FFF700FE162303604FF0FF3013
S3151001046008BD00BF70B50F4B0F4DAB42A3EB050690
S3151001047007D0B610002455F8043B01349847A6421C
S31510010480F9D807F033FE094D094B5E1BAB424FEA13
S31510010490A60606D0002455F8043B01349847A64217
S315100104A0F9D870BDB80B0020B80B0020B80B00208E
S315100104B0C00B0020704700BF704700BF0020704777
S315100104C0024A0349034800F055BB00BF380100201A
S315100104D0AD4B0110180000200C4B4168994210B524
S315100104E0044601D004F062FBA168094B994202D07F
S315100104F0204604F05BFBE168064B994204D0204686
S31510010500BDE8104004F052BB10BD00BF34140020EA
S315100105109C14002004150020002070472DE9F84393
S315100105202A4C2B49DFF8AC90DFF8AC802B4FC4F87E
S315100105303811002504230822294604F15C00284EAF
S31510010540E360C4E90055C4E90455A5606566A56173
S31510010550FFF762FC234B63670822294604F1C400A6
S31510010560C4E90749C4E90987C4E91A55C4E91E55FE
S315100105702567C4F8CC50C4F88050E662FFF74CFCEE
S31510010580194BC4F8DC30294604F16803082204F536
S315100105909670C4F88430C4E92298C4E92476C4E973
S315100105A03455C4E93855C4F8D850C4F83451C4F890
S315100105B0E850FFF731FC04F1D003C4E93C98C4E9D3
S315100105C03E76C4F8EC30BDE8F88300BF3414002041
S315100105D0C1040110514C0110794C0110B94C011094
S315100105E0DD4C01100900010012000200F8B5254B7F
S315100105F0D3F838310646002B3CD0234FD7E90134C6
S31510010600013B04D51DE05A1C04F1680419D0B4F954
S315100106100C50013B002DF6D11C4BE360C4E901558A
S31510010620C4E9045565662560A5610822294604F1C9
S315100106305C00FFF7F1FBC4E90C55C4E911552046DE
S31510010640F8BD3D680DB12F46D8E74FF4D671304647
S3151001065002F0C2FF044680B10423C0E900530C30F6
S315100106602946A0604FF4D0722546FFF7D5FB3C60B2
S315100106702F46C3E7FFF752FFBFE70C2338603360FD
S31510010680DDE700BF34140020380100200100FFFF10
S31510010690436B03B17047044B044AD3F838314263B4
S315100106A0002BF7D13AE700BF34140020D90401100A
S315100106B0704700BF704700BF024A0349002000F08F
S315100106C059BA00BF38010020BD040110024A03497E
S315100106D0002000F04FBA00BF3801002019050110A3
S315100106E070B504468AB008460D46FFF729FB164E2B
S315100106F0626B079001214318CDE90861022006A912
S3151001070003910695A16805930490A2B1B1F90C2045
S315100107104B6E900405D442F4005223F400538A819F
S315100107204B669B040DD403AA204600F017F840B976
S315100107300A200AB070BD20460191FFF7A9FF019961
S31510010740E4E74FF0FF30F4E7187B0110024B014646
S315100107501868FFF7C5BF00BF100000209368002B73
S3151001076000F0F6802DE9F04FB1F90CC01CF0080F1E
S3151001077083B0904681460C4631D00B697BB31CF091
S315100107800207D8F8006038D00027D4F824B0E16900
S31510010790DFF8BCA23D4655452B463A4628BF53467F
S315100107A04846C5B1D847002840F3C880D8F8083064
S315100107B01B1A07442D1AC8F80830002B00F0B48014
S315100107C055452B46D4F824B0E16928BF53463A461D
S315100107D04846002DE6D1D6E900750836DBE72146F5
S315100107E0484604F081F9002840F0AD80B4F90CC0F8
S315100107F0D8F800601CF00207C6D11CF0010A63D1BB
S315100108002368A168574618468B46002F58D01CF40A
S31510010810007F00F0B180B9420A4600F2DD801CF477
S31510010820906F2FD0216962695D1A02EB420202EBC9
S31510010830D2726B1C52103B44934292BF93469B4615
S315100108401A461CF4806F00F0E6801146484602F005
S31510010850C3FE002800F0F5802A4621690190FFF7B2
S3151001086059FDA289019B22F4906242F08002A28175
S315100108705819ABEB0505C4F814B02361A5602060C7
S31510010880BB463A465146019202F026FEA1682368FC
S31510010890019AA1EB0B011A443D46A1602260002783
S315100108A0D8F808305B1BAA44C8F80830002B3BD097
S315100108B02368A168B4F90CC018468B46002FA6D13F
S315100108C0D6E900A708369EE73846BB463D46002DB9
S315100108D040D0002845D03A46D4E904C32068A1681F
S315100108E0AA4228BF2A46604504D901EB030A52459C
S315100108F000F38280934272DCE169D4F824C05A462F
S315100109004846E047B0F1000A18DDB7EB0A070FD0E9
S315100109100120D8F80830A3EB0A03D344A5EB0A0546
S31510010920C8F80830002BD2D1002003B0BDE8F08FF3
S3151001093021464846FFF756FB0028EAD0B4F90C3099
S3151001094043F04003A3814FF0FF3003B0BDE8F08FB1
S3151001095000207047756833460836002DFAD0D3F853
S3151001096000B02A460A21584601F082FB002865D0BC
S315100109700130A0EB0B07AEE722699A4214D36269E4
S31510010980BA4211D86FF00043BB4228BF3B46656A95
S3151001099093FBF2F3E16902FB03F348465246A8477B
S315100109A0051ECBDD7F1B7BE7B94228BF39460D46B5
S315100109B018460A46514602F08FFDA1682368491B65
S315100109C02B44A16023600029ECD121464846FFF74C
S315100109D009FB0028E6D0B1E7BB463A4652E759462D
S315100109E0019202F079FD019AA3689B1AA36023680C
S315100109F013442360924688E75946524602F06CFD2D
S31510010A0023685344236021464846FFF7EBFA002832
S31510010A103FF47BAF92E7484604F096F90346002867
S31510010A207FF426AF21694846FFF778FBB4F90C30FD
S31510010A300C22C9F8002023F0800381E76A1C1746AF
S31510010A404AE70C22B4F90C30C9F8002078E700BF48
S31510010A5000FCFF7F002301461A46184604F042B9EE
S31510010A600CB410B59CB01EAB029106916FF000410B
S31510010A7004910791084953F8042B0591002402A902
S31510010A8001931B9401F044FB029B1C701CB0BDE842
S31510010A90104002B0704700BF0802FFFF0EB430B518
S31510010AA09CB06FF000411FAB049107910A4953F8AE
S31510010AB0042B029000240690084D0868019302A9A0
S31510010AC005951B9401F024FB029B1C701CB0BDE81C
S31510010AD0304003B0704700BF100000200802FFFF2E
S31510010AE00EB400B582B003AB816853F8042B0193A1
S31510010AF000F062F802B05DF804EB03B0704700BF76
S31510010B000FB400B5074983B004AB086853F8042B3A
S31510010B108168019300F050F803B05DF804EB04B05E
S31510010B20704700BF1000002038B5074D002204465B
S31510010B3008462A60FEF71EF9431C00D038BD2B6803
S31510010B40002BFBD0236038BDA815002038B5074D02
S31510010B50074C2C1BA41005D0013C55F8043D9847B1
S31510010B60002CF9D1BDE8384007F0C6BAC40B0020F5
S31510010B70C00B00202DE9F8430746884616464FF06C
S31510010B800009D6E90154013D10D4A389012B08D9D6
S31510010B90B4F90E3001332146384602D0C04749EA2E
S31510010BA00009013D6B1C04F16804EED13668002E74
S31510010BB0E7D14846BDE8F8832DE9F04FC3B01C468E
S31510010BC0089191460D9305460C9005F031F802688F
S31510010BD014921046FFF7B4F813901DB16B6B002BEE
S31510010BE001F01B800899B1F90C204B6E900405D4C5
S31510010BF042F4005223F400538A814B669F0401F19B
S31510010C004381089AB2F90C301E0740F1DD80126952
S31510010C10002A00F0D98003F01A030A2B00F0E380B2
S31510010C200023CDE92633CDE9153312930A93002417
S31510010C300023CDE9103432AA25929246CB469BF871
S31510010C400030002B00F05F815C4604E014F8013F90
S31510010C50002B00F03C81252BF8D1B4EB0B0540F0AD
S31510010C6039812378002B00F04E814FF000038DF867
S31510010C70773000276378099704F1010B4FF0FF399C
S31510010C800BF1010B9846A8F12003582B00F248816D
S31510010C90DFE813F07B024601460176024601460162
S31510010CA046014601460146013E02700246014902CD
S31510010CB04E0246016B02590059005900590059005C
S31510010CC0590059005900590046014601460146018D
S31510010CD04601460146014601460146016800C10129
S31510010CE04601C1014601460146014601A6024601D9
S31510010CF04601B80046014601460146014601C900B2
S31510010D00460146014D064601460146014601460188
S31510010D104601460146014601460198026A00C10193
S31510010D20C101C10193026A004601460186024601CC
S31510010D30E202BA00D102CC024601AB024601CB0057
S31510010D40460146016D06A8F1300300221BF8018BFE
S31510010D5002EB820203EB4202A8F13003092BF5D90B
S31510010D60099290E747F01007BD0640F1AA810D9B45
S31510010D70073323F007031A46596852F8083B0D92B8
S31510010D800A460029C0F2AF81B9F1000F9DF87740EC
S31510010D90C0F2B08127F08001069153EA020140F0BA
S31510010DA0A8810121B9F1000F40F04B83002940F0D1
S31510010DB0E98417F001030B9300F0298530238DF890
S31510010DC0C7300DF1C7056EE0089D0C98294603F052
S31510010DD08BFE002841F05880B5F90C3003F01A0348
S31510010DE00A2B7FF41DAF089BB3F90E30002BFFF6CB
S31510010DF017AF08990C9823464A4643B0BDE8F04F01
S31510010E0001F0FEB847F0100717F0200200F04A81F2
S31510010E100D9B073323F0070319465A6851F8083B0F
S31510010E200D9100210FE047F0100717F0200200F096
S31510010E302F810D9B073323F0070319465A6851F882
S31510010E40083B0D9101210024B9F1000F8DF877406F
S31510010E5006DB27F08000069053EA0200A2D0069F17
S31510010E60012900F04781022900F0F58232AD03F025
S31510010E700701DB0843EA4273D208303153EA02060E
S31510010E80284605F8011DF2D1FB0740F1F2823029FF
S31510010E9000F0EF823023023805F8013C32AB1B1A01
S31510010EA006970B9305460B9B4B45B8BF4B460793CD
S31510010EB000230F9314B1079B01330793069B13F07D
S31510010EC002033FD0079B0233079302233AE0B4EBA8
S31510010ED00B0518D0279B2B442793269B0133072BF1
S31510010EE0CAE900B5269305DC0AF1080A0A9B2B44C8
S31510010EF00A93B6E608990C9825AA04F01BF930B99D
S31510010F000DF1C80AF2E7279B002B40F00D87089BCD
S31510010F109B895B0600F1B8870A9843B0BDE8F08F4C
S31510010F20B8F1000FEFD000238DF8773001238DF83B
S31510010F30A08007930B9328AD4FF000090697CDF8C3
S31510010F403C904B46069A279C12F084020E9205D1CC
S31510010F50099A0799561A002E00F3FB829DF87720FD
S31510010F608AB1269A0DF1770101320134CAF80010BF
S31510010F70072A4FF0010127942692CAF8041000F3AC
S31510010F8023830AF1080A83B1269A1EA90132023473
S31510010F90CAF80010072A4FF0020127942692CAF8C0
S31510010FA0041000F31F830AF1080A0E9B802B00F030
S31510010FB0C7810B9BA9EB0306002E00F30382069B48
S31510010FC0DE0500F156810B9BCAF804301C44269BA2
S31510010FD0CAF800500133072B2794269300F3628237
S31510010FE00AF1080A069B5A0705D5099B079A9D1A05
S31510010FF0002D00F30383DDE9092307998A42ACBF6B
S315100110009B185B180A93002C40F038820023269314
S315100110100DF1C80A13E60D9B073323F00703F3E816
S3151001102002450D9325F0004319931894DDE9180133
S31510011030BD4B4FF0FF32CDE9104506F03BFB0028C2
S3151001104040F0F083DDE91801B74B4FF0FF3206F09F
S3151001105013FB002840F0E683002200232046294690
S3151001106006F000FB002840F049869DF87740AF4D09
S3151001107027F080030693AE4BB8F1470FD8BF1D4634
S315100110804FF00009032307930B93CDF83C9011E71A
S315100110900D9951F8043B0D9117F0100100F0BA8328
S315100110A00121D0E60D9951F8043B0D9117F010016D
S315100110B07FF4B7AE17F040023FF4B3AE0A469BB2C7
S315100110C0AFE60D9AFC0652F8043B0D9206D478064B
S315100110D004D543F3C03211461BB252E6DA17114654
S315100110E00029BFF651AE5B4262EB42022D2401216B
S315100110F0AAE6069F0A2B72F1000180F004853033AF
S315100111008DF8C730012306970B930DF1C705CAE673
S315100111100D9B53F8042B0992002A80F27383099AC6
S315100111200D93524209929BF8003047F00407A7E548
S315100111305A4612F8018BB8F12A0F00F02F87A8F141
S315100111403003092B98BF4FF0000900F2AE8612F852
S31510011150018B09EB890903EB4909A8F13003092B26
S31510011160F5D949EAE97993468DE59BF8003047F0C0
S31510011170800785E52B238DF877309BF800307FE5C6
S315100111809BF8003047F001077AE59DF877209BF828
S315100111900030002A7FF474AD20228DF877206FE598
S315100111A09BF800306C2B03BF9BF8013047F02007EA
S315100111B00BF1010B47F0100762E59BF8003047F081
S315100111C040075DE50D9B00228DF8772053F8042B1F
S315100111D00D9301238DF8A02007930B9328ADABE651
S315100111E09BF8003047F008074AE50D9C54F8045B5C
S315100111F000268DF87760002D00F0C883B9F1000F35
S31510011200C0F21D854A463146284600F031FF0028B6
S3151001121000F03F86431B0B9323EAE3730D94B1460B
S315100112209DF87740069707930F9643E69BF8003093
S3151001123047F0200724E50D9A52F8043B0D9247F624
S315100112403002ADF878203B4A159247F0020700228A
S3151001125002214FF07808F6E5BD0640F15F830D9B3C
S315100112600A9A1B681A60D2175A600D9B04330D93A4
S31510011270E5E4B8F1650F40F32181DDE910010022A3
S31510011280002306F0E5F9002800F0F581269B2A4A8D
S31510011290CAF80020013301340122072B2794269323
S315100112A0CAF8042000F3AC840AF1080A1F9B129AAB
S315100112B0934280F2A282139B149A1C44CAE900231A
S315100112C0269B27940133072B269300F353830AF1A8
S315100112D0080A129B5D1E002D7FF784AE102D269BEA
S315100112E0164F40F3D480DDF83080DDF820901026BB
S315100112F005E00AF1080A103D102D40F3C8800133AC
S315100113001034072BCAE90076CDE92634F1DD25AA7A
S315100113104946404603F00EFF00287FF4F8ADDDE99B
S3151001132026340DF1C80AE6E7FFFFEF7FE07B0110D7
S31510011330DC7B0110007C01101C7C0110707E0110F9
S31510011340099B079A9E1A002E7FF733AE102E269B05
S31510011350AF4F24DD52462146AA460C9C089D04E057
S31510011360103E102E02F1080216DD01331031102045
S31510011370072BCDE9263117605060F1DD25AA2946E4
S31510011380204603F0D7FE00287FF4C1AD103E102E83
S31510011390DDE9263132AAE8DC55460C469246013380
S315100113A03444072BCDE92634CAF80070CAF8046014
S315100113B000F338840B9BA9EB0306002E0AF1080AE9
S315100113C07FF7FDAD102E269B914F2CDD52462146FF
S315100113D0B2460C9C2E464FF01009089D06E0AAF164
S315100113E0100ABAF1100F02F1080218DD013388480C
S315100113F01031072BC2E90009CDE92631EFDD25AA07
S315100114002946204603F096FE00287FF480ADAAF106
S31510011410100ABAF1100FDDE9263132AAE6DC35469B
S315100114200C465646924601333444072BCDE92634F1
S31510011430CAF80070CAF8046000F3D2810AF1080AEA
S31510011440BDE50129069F4FF000033FF458AE02296E
S315100114501A467FF40BAD159832AD03F00F011B0937
S31510011460415C05F8011D43EA0273120953EA0201B0
S31510011470F3D132AB5B1B06970B9314E508990C98C5
S3151001148025AA03F057FE00283FF4C0AD3FE501330E
S315100114902C44072BCAF80070CAF80450CDE926343B
S315100114A07FF79EAD08990C9825AA03F043FE0028F4
S315100114B07FF42DAD279C0DF1C80A93E5129B269E4C
S315100114C0012B04F1010406F101060AF1080840F3A3
S315100114D03E810123072ECDE92664CAF80050CAF8C9
S315100114E0043000F3F682139B149A01361C44072E1E
S315100114F0C8E90023CDE9266400F3F88208F108084B
S31510011500129BDDE9100103F1FF390022002306F0D9
S315100115109FF8002840F03B81013601354C44072ED7
S31510011520CDE92664C8F80050C8F8049000F31D816F
S3151001153008F10808169BC8F8043001361C44072E1A
S3151001154021ABCDE92664C8F80030ABDC08F1080AF6
S3151001155048E5102E269A2F4F28DD51462046CA46B9
S315100115600C9C1793A946089D04E0103E102E01F11C
S31510011570080116DD013210301023072ACDE9262085
S315100115800F604B60F1DD25AA2946204603F0D2FDF6
S3151001159000287FF4BCAC103E102EDDE9262032A9BE
S315100115A0E8DC179B4D460446D1468A46013234443F
S315100115B0072ACDE92624CAF80070CAF8046000F398
S315100115C0DC820AF1080AC9E408990C98179325AA2E
S315100115D003F0B0FD00287FF49AAC279C179B0DF100
S315100115E0C80AD0E408990C9825AA03F0A3FD00288F
S315100115F07FF48DAC279C0DF1C80AD6E4102D269BDD
S31510011600044F25DDDDF83080DDF82090102608E046
S31510011610707E0110607E0110103D102D0AF1080A2E
S3151001162016DD01331034072BCAE90076CDE92634CD
S31510011630F2DD25AA4946404603F07CFD00287FF4D9
S3151001164066AC103D102DDDE926340DF1C80AE8DC33
S3151001165001332C44072BCAE90075CDE926347FF7EF
S31510011660CAAC08990C9825AA03F064FD00287FF4EA
S315100116704EAC279CBFE41F99002940F38D820F9F22
S31510011680129B9F42A8BF1F46002F0BDD269B0133DD
S315100116903C44072BCAE900572794269300F3D683B7
S315100116A00AF1080A0F9E002FA8BFF61B002E00F3A1
S315100116B077811F9B129A9342C0F2A181069AD00795
S315100116C000F19D81129A0F99D31A561A9E42A8BFFC
S315100116D01E46002E0EDD269ACAF8046001320D440C
S315100116E03444072ACAF800502794269200F3BA8385
S315100116F00AF1080A002EACBF9D1B1D46002D7FF76F
S3151001170071AC102D269BAC4F7FF7C1AEDDF8308042
S31510011710DDF82090102605E00AF1080A103D102D7B
S315100117207FF7B5AE01331034072BCAE90076CDE940
S315100117302634F1DD25AA4946404603F0FBFC002874
S315100117407FF4E5ABDDE926340DF1C80AE6E7069B21
S31510011750D9073FF5BEAE0123072ECDE92664CAF897
S315100117600050CAF804307FF7E5AE08990C9825AAFF
S3151001177003F0E0FC00287FF4CAABDDE926640DF125
S31510011780C808D7E6CDF82C9032ADFFF78CBB129B6B
S31510011790012B7FF7CFAE112B874F40F39582DDF8E2
S315100117A030A0102507E008F10808A9F11009B9F1D0
S315100117B0100F40F3898201361034072EC8E90075DF
S315100117C0CDE92664EFDD089925AA504603F0B2FC4F
S315100117D000287FF49CABDDE926640DF1C808E4E727
S315100117E008990C9825AA03F0A5FC00287FF48FAB65
S315100117F0279C0DF1C80AFFF7E2BB069BDD077FF5B3
S31510011800F1AB58E50D939BF80030FFF739BA32ADBD
S31510011810FFF749BB17F040021CBF0A469BB20121D4
S31510011820FFF711BBDDE9100102460B4605F042FF39
S31510011830002840F07B83B9F1FF3F28F0200600F025
S315100118402083472E04D1B9F1000F08BF4FF00109CB
S31510011850DDE9101247F48070002A0690C0F2DA8290
S3151001186000230E93DDE91034CDE91A34B8F1650F72
S3151001187000F0A58200F3E282B8F1450F00F09F82D5
S3151001188023AB049320AB03931FAB02930223009364
S315100118900C98CDF80490DDE91A2302F0E3F9F90763
S315100118A0054640F1C08000EB0904DDE91A0100226A
S315100118B0002305F0CDFE002840F03282239BA3427F
S315100118C006D230215A1C23921970239B9C42F9D8B7
S315100118D01F9A0F925B1B472E129300F0A980B8F145
S315100118E0660F40F0BC800F9A07F00103002A43EA05
S315100118F0090340F36183002B40F03E830F9B07934E
S315100119000B934FF066080E9B002B00F07D822D2362
S315100119108DF877304FF00009FFF7CDBAFC067DD46C
S3151001192078067BD50D9B0A9A1B681A809DE4234B7A
S31510011930159317F0200200F0BE800D9B073323F09C
S31510011940070319465A6851F8083B0D91F90740F1FA
S31510011950AF8053EA020100F0AB8030218DF8781088
S315100119608DF8798047F002070221FFF76CBA144B04
S315100119701593DEE708990C9825AA03F0DBFB0028DE
S315100119807FF4C5AA279C0DF1C80AA2E44B46062B83
S3151001199028BF06230B4D0B930D940793FFF7CCBA73
S315100119A0102E269B044F40F39C812246DDF8309081
S315100119B0089C4FF010080DE0707E0110EC7B0110B1
S315100119C0007C0110147C01100AF1080A103E102E39
S315100119D040F3868101331032072BCAE90078CDE92D
S315100119E02632F1DD25AA2146484603F0A3FB00283D
S315100119F07FF48DAADDE926320DF1C80AE6E7139ABE
S31510011A0014991444CAE90012269A27940132072A16
S31510011A10269200F306820AF1080A53E60D9B0A9AEA
S31510011A201B681A6021E4239B1B1A12931F9B0F93A9
S31510011A300F9BDA1C11DB99450FDB129B0F9A934210
S31510011A4000F35982FE070F9B00F1818223EAE372AC
S31510011A5007920B934FF0670855E7A8F102080F9B01
S31510011A608DF88480591E00291F91B6BFC3F101015B
S31510011A702B232D2309298DF8853000F35C81302322
S31510011A8030318DF8863004238DF887101693129A0B
S31510011A90169B012A13440B9340F324820B9B139A32
S31510011AA013440B9323EAE373079300230F932AE757
S31510011AB00221FFF7C8B90D9951F8043B0D9117F0A2
S31510011AC010017FF443AF17F040021CBF9BB20A46C8
S31510011AD03CE708990C9825AA03F02CFB00287FF403
S31510011AE016AADDE926640DF1C808FCE408990C98DC
S31510011AF025AA03F01FFB00287FF409AADDE9266455
S31510011B000DF1C808FCE4CDE90687BC4E32AD4FF0A5
S31510011B10050E991841F10001A6FB010727F00300F4
S31510011B2000EB9700091A581A9846944662F1000379
S31510011B304FF0CC3202FB00F206FB0322A0FB06306B
S31510011B4003F001070244A7FB0E074018B8F10A0F6C
S31510011B504FEA530300F130007CF1000C43EAC273E3
S31510011B6005F8010D4FEA5202D3D2DDE9068732ABF1
S31510011B705B1B06970B93FFF796B908990C98179369
S31510011B8025AA03F0D7FA00287FF4C1A9279C179B31
S31510011B900DF1C80AFFF7E2B9269B994ACAF8002047
S31510011BA0013301340122072B27942693CAF8042006
S31510011BB000F3A9800AF1080A00294FD1069B129A4F
S31510011BC003F0010313433FF40DAA139B14991A1939
S31510011BD0CAE90013269B27920133072B269300F39C
S31510011BE0D4800AF1080A1299CAF8005001338C18E8
S31510011BF0072BCDE92634CAF804107FF7F1A951E471
S31510011C0008990C9825AA03F095FA00287FF47FA964
S31510011C10279C0DF1C80AFFF749BB0C98FEF738FD52
S31510011C20FEF7E0BF08990C9825AA03F083FA00285D
S31510011C307FF46DA9279C0DF1C80AFFF7BAB928469A
S31510011C40FEF77EF820EAE0730D940B909DF877402D
S31510011C500697B14607930F96FFF72CB9139B149865
S31510011C601A19CAE90003269B27920133072B2693DB
S31510011C7000F38B800AF1080A0029B4DA4E421031BA
S31510011C80604F80F21781DDF83080DDF82090102446
S31510011C9005E00AF1080A103E102E40F30B810133BC
S31510011CA01032072BCAE90074CDE92632F1DD25AAD7
S31510011CB04946404603F03EFA00287FF428A9DDE99B
S31510011CC026320DF1C80AE6E701364C44072ECDE956
S31510011CD02664C8F80070C8F804907FF729AC44E56B
S31510011CE0144601333444072BCDE92634CAF8007063
S31510011CF0CAF8046057DC0AF1080ADAE42D248DF8D3
S31510011D007740FFF7B4B908990C9825AA03F012FA8F
S31510011D1000287FF4FCA81F99279C0DF1C80A4BE7F0
S31510011D201F9A0F922346D5E508990C9825AA03F018
S31510011D3001FAFFF7ECB80DF19304304E234618461D
S31510011D40A6FB0123DB0803EB8302A1EB420230322F
S31510011D5000F8012C0A46632A194600F1FF33EEDC1E
S31510011D60303103F8011C831EA34280F022810DF14C
S31510011D70850213F8011B02F8011FA342F9D142ABE8
S31510011D80181AA0F17103169381E608990C9825AAE1
S31510011D9003F0D0F900287FF4BAA8DDE926321F999D
S31510011DA00DF1C80A68E708990C9825AA03F0C2F93B
S31510011DB000287FF4ACA8279C0DF1C80A79E409F133
S31510011DC0010307930223009323AB049320AB079CD3
S31510011DD003931FAB019402930C98DDE91A2301F0CA
S31510011DE041FFB8F1660F054604447FF45EAD2B78CA
S31510011DF0302B00F08D801F9B1C4456E5CDCCCCCCEE
S31510011E001C7C0110707E0110DDF838909DF877402A
S31510011E10FFF750B802F100431B932D231A910E932D
S31510011E2024E508990C9825AA03F084F900287FF473
S31510011E306EA81F9B279C0DF1C80A43E4B8F1660FE3
S31510011E407FF41EADCDF81C900323BCE708990C98BE
S31510011E5025AA03F06FF900287FF459A8279C0DF1E4
S31510011E60C80A1FE408990C9825AA03F063F90028FB
S31510011E707FF44DA81F9B129A279CD31A0DF1C80AFD
S31510011E8038E44FF00609E3E44FF0FF330A93FFF706
S31510011E9043B80D94CDF81C90CDF82C909DF8774051
S31510011EA0069781460F90FFF705B893464FF0000944
S31510011EB0FEF7E9BE01333244072BCDE92632CAF8C3
S31510011EC00070CAF804607FF78CAE08990C9825AAA1
S31510011ED003F030F900287FF41AA8DDE926320DF156
S31510011EE0C80A80E617F001020F927FF4D7AD23EAF4
S31510011EF0E373079307E5DDE9123213440F9A0B9347
S31510011F00002A2DDD23EAE37307934FF06708FAE4FD
S31510011F10DDE91A010022002305F09AFB002837D0CB
S31510011F201F9B0F931C44631B1293DCE4119B2C4DD6
S31510011F30002BB8BF2D2427F080030693A8BF9DF868
S31510011F407740284BB8BF8DF87740FFF795B8139AAD
S31510011F5013440B9323EAE37307934FF06708D2E414
S31510011F600F9B0B9AC3F101031A4422EAE2730B92F7
S31510011F7007934FF06708C6E4139B09EB030808EBB8
S31510011F8002030B9323EAE37307934FF06608BAE44F
S31510011F90079BC3F101031F931C4486E40D999BF81B
S31510011FA0013051F8049B0D91934649EAE979FEF700
S31510011FB067BE022316936AE52BB9012307934FF0E7
S31510011FC066080B939FE4139B03F1010808EB0903C1
S31510011FD00B9323EAE37307934FF0660893E400BF6C
S31510011FE0E87B0110E47B011010B4044C84461346BF
S31510011FF0206810BC0A466146FEF7DEBD10000020BF
S3151001200070B50C468989ADF58D6D21F00201ADF8DB
S315100120100C101AA9009104914FF480610291059157
S31510012020616E1991E189ADF80E10E1690791616A46
S3151001203009910021069169460646FEF7BDFD051E6A
S3151001204007DB69463046FDF7CDFF002818BF4FF074
S31510012050FF35BDF80C305B0603D5A38943F0400369
S31510012060A38128460DF58D6D70BD00BF00000000DF
S3151001207001F0FF01102A2BDB10F0070F08D010F822
S31510012080013B013A8B422DD010F0070F42B3F6D126
S31510012090F0B441EA012141EA014122F007047FF03F
S315100120A000070023F0E80256083C85EA010586EA96
S315100120B0010685FA47F5A3FA87F586FA47F6A5FAD2
S315100120C087F68EB9EED1F0BC01F0FF0102F00702DE
S315100120D032B110F8013B013A83EA010313B1F8D189
S315100120E00020704701387047002D06BF354603386A
S315100120F0073815F0010F07D1013015F4807F02BFA3
S31510012100013015F4C03F0130F0BC0138704700BFF3
S315100121102DE9F04FC3B00C460B9192460D930C90DE
S3151001212003F086FD036814931846FDF709FEA3898B
S3151001213013901E0603D52369002B00F0A1860023F8
S31510012140CDE92633CDE915331293099300240023E3
S31510012150CDE9103432AA25929146D3469BF8003028
S31510012160002B00F03C815C4604E014F8013F002B83
S3151001217000F01981252BF8D1B4EB0B0540F016812F
S315100121802378002B00F02B814FF000038DF8773068
S3151001219000276378089704F1010B4FF0FF3A0BF112
S315100121A0010B9846A8F12003582B00F22581DFE890
S315100121B013F04902230123014402230123012301C0
S315100121C02301230123010C023E02230117021C02E3
S315100121D02301390259005900590059005900590073
S315100121E05900590059002301230123012301230119
S315100121F02301230123012301230168009E012301E9
S315100122009E012301230123012301740223012301CA
S31510012210950023012301230123012301A600230194
S3151001222023013F0623012301230123012301230156
S31510012230230123012301230166026A009E019E01E7
S315100122409E0161026A002301230154022301B00297
S3151001225097009F029A02230179022301A800230104
S3151001226023015F06A8F1300300221BF8018B02EB54
S31510012270820203EB4202A8F13003092BF5D9089229
S3151001228090E747F01007BD0640F16E810D9B0733AD
S3151001229023F007031A46596852F8083B0D920A466D
S315100122A00029C0F28C81BAF1000F9DF8774007DB47
S315100122B027F08001069153EA020100F0A883069FD8
S315100122C00A2B72F1000180F06F8630338DF8C7301A
S315100122D0012306970A930DF1C70550E047F0100741
S315100122E017F0200200F057810D9B073323F00703E7
S315100122F019465A6851F8083B0D9100210FE047F035
S31510012300100717F0200200F03C810D9B073323F0D4
S31510012310070319465A6851F8083B0D91012100240B
S31510012320BAF1000F8DF8774007DB27F08000069091
S3151001233053EA020000F06C83069F0129C0D00229DE
S3151001234000F0E78232AD03F00701DB0843EA42737E
S31510012350D208303153EA0206284605F8011DF2D19A
S31510012360FB0740F1E482302900F0E1823023023884
S3151001237005F8013C32AB1B1A06970A9305460A9BD0
S315100123805345B8BF5346079300230F9314B1079BC8
S3151001239001330793069B13F002033FD0079B0233C9
S315100123A0079302233AE0B4EB0B0518D0279B2B4475
S315100123B02793269B0133072BC9E900B5269305DC24
S315100123C009F10809099B2B440993D9E6DDE90B109C
S315100123D025AA02F071FE30B90DF1C809F2E7279B63
S315100123E0002B40F046870B9B9B895B0601F11680FB
S315100123F0099843B0BDE8F08FB8F1000FEFD0002374
S315100124008DF8773001238DF8A08007930A9328ADB4
S315100124104FF0000A0697CDF83CA05346069A279C22
S3151001242012F084020E9205D1DDE90712561A002E1A
S3151001243000F300839DF877208AB1269A0DF1770172
S3151001244001320134C9F80010072A4FF0010127940F
S315100124502692C9F8041000F3268309F1080983B1FD
S31510012460269A1EA901320234C9F80010072A4FF024
S31510012470020127942692C9F8041000F3228309F168
S3151001248008090E9B802B00F0B9810A9BAAEB030663
S31510012490002E00F3F581069BDE0500F147810A9BAC
S315100124A0C9F804301C44269BC9F800500133072B88
S315100124B02794269300F3548209F10809069B5A07BB
S315100124C005D5DDE907239D1A002D00F30683DDE905
S315100124D0082307998A42ACBF9B185B180993002CF5
S315100124E040F02A82002326930DF1C80936E60D9B8A
S315100124F0073323F00703F3E802450D9325F0004354
S3151001250019931894DDE91801B64B4FF0FF32CDE956
S31510012510104505F0CFF8002840F00F84DDE91801C9
S31510012520B04B4FF0FF3205F0A7F8002840F00584B4
S31510012530002200232046294605F094F8002840F091
S3151001254030869DF87740A84D27F080030693A74B58
S31510012550B8F1470FD8BF1D464FF0000A0323079362
S315100125600A93CDF83CA011E70D9AFC0652F8043BEC
S315100125700D921FD478061DD543F3C03211461BB2F6
S315100125808EE60D9951F8043B0D9117F0100100F0EC
S31510012590CC830121C3E60D9951F8043B0D9117F037
S315100125A010017FF4AAAE17F040023FF4A6AE0A4618
S315100125B09BB2A2E6DA1711460029BFF674AE5B424A
S315100125C062EB42022D240121AAE60D9B53F8042B3E
S315100125D00892002A80F2A183089A0D93524208921A
S315100125E09BF8003047F00407D9E55A4612F8018BDB
S315100125F0B8F12A0F00F05B87A8F13003092B98BFB9
S315100126004FF0000A00F2C68612F8018B0AEB8A0A0D
S3151001261003EB4A0AA8F13003092BF5D94AEAEA7AFB
S315100126209346BFE59BF8003047F08007B7E52B23AB
S315100126308DF877309BF80030B1E59BF8003047F004
S315100126400107ACE59DF877209BF80030002A7FF44E
S31510012650A6AD20228DF87720A1E59BF800306C2BD2
S3151001266003BF9BF8013047F020070BF1010B47F030
S31510012670100794E59BF8003047F040078FE50D9B56
S3151001268000228DF8772053F8042B0D9301238DF832
S31510012690A02007930A9328ADBAE69BF8003047F0BD
S315100126A008077CE50D9C54F8045B00268DF87760CD
S315100126B0002D00F01D85BAF1000FC0F21C845246A0
S315100126C031462846FFF7D4FC002800F05286431BFA
S315100126D00A9323EAE3730D94B2469DF87740069761
S315100126E007930F9652E69BF8003047F0200756E500
S315100126F00D9A52F8043B0D9247F63002ADF8782048
S315100127003B4A159247F00207002202214FF0780842
S3151001271005E6BD0640F183830D9B099A1B681A6075
S31510012720D2175A600D9B04330D9317E5B8F1650F57
S3151001273040F32281DDE910010022002304F088FF15
S31510012740002800F00682269B2A4AC9F80020013388
S3151001275001340122072B27942693C9F8042000F38C
S31510012760A08409F108091F9B129A934203DB069B69
S31510012770DD077FF5A3AE139B149A1C44C9E9002308
S31510012780269B27940133072B269300F3A48409F182
S315100127900809129B5D1E002D7FF790AE102D269B0A
S315100127A0154F40F3D280DDE90BA8102605E009F19B
S315100127B00809103D102D40F3C88001331034072B42
S315100127C0C9E90076CDE92634F1DD25AA5146404600
S315100127D002F072FC00287FF406AEDDE926340DF115
S315100127E0C809E6E7FFFFEF7FE07B0110DC7B0110F4
S315100127F0007C01101C7C0110907E0110DDE907237D
S315100128009E1A002E7FF741AE102E269BB74F24DD60
S315100128104A462146A946DDE90B5404E0103E102E26
S3151001282002F1080216DD013310311020072BCDE914
S31510012830263117605060F1DD25AA2946204602F09F
S315100128403BFC00287FF4CFAD103E102EDDE926317A
S3151001285032AAE8DC4D460C46914601333444072B27
S31510012860CDE92634C9F80070C9F8046000F326844E
S315100128700A9BAAEB0306002E09F108097FF70BAE96
S31510012880102E269B994F2CDD4A462146B1464FF014
S31510012890100A2E46DDE90B5406E0A9F11009B9F12B
S315100128A0100F02F1080218DD013390481031072B81
S315100128B0C2E9000ACDE92631EFDD25AA29462046CF
S315100128C002F0FAFB00287FF48EADA9F11009B9F1D7
S315100128D0100FDDE9263132AAE6DC35460C464E46A6
S315100128E0914601333444072BCDE92634C9F80070DB
S315100128F0C9F8046000F3EA8109F10809CBE5012959
S31510012900069F4FF000033FF4E0AC02291A467FF40C
S3151001291019AD159832AD03F00F011B09415C05F88D
S31510012920011D43EA0273120953EA0201F3D132ABD4
S315100129305B1B06970A9322E5DDE90B1025AA02F027
S31510012940BBFB00283FF4CEAD4DE501332C44072BDC
S31510012950C9F80070C9F80450CDE926347FF7ACAD3B
S31510012960DDE90B1025AA02F0A7FB00287FF43BAD89
S31510012970279C0DF1C809A1E5129B269E012B04F196
S31510012980010406F1010609F1080840F35B810123F0
S31510012990072ECDE92664C9F80050C9F8043000F3B2
S315100129A0A281139B149A01361C44072EC8E90023F1
S315100129B0CDE9266400F3A48108F10808129BDDE92C
S315100129C0100103F1FF390022002304F041FE002813
S315100129D040F05381013601354C44072ECDE926646A
S315100129E0C8F80050C8F8049000F33A8108F10808B5
S315100129F0169BC8F8043001361C44072E21ABCDE9CD
S31510012A002664C8F80030ABDC08F1080956E5012147
S31510012A10BAF1000F7FF473AF002940F00E8117F061
S31510012A2001030A9300F07E8130238DF8C7300DF132
S31510012A30C705A4E4102E269A2D4F26DD49462046B9
S31510012A40A9461793DDE90B5404E0103E102E01F14F
S31510012A50080116DD013210301023072ACDE9262090
S31510012A600F604B60F1DD25AA2946204602F024FBB2
S31510012A7000287FF4B8AC103E102EDDE9262032A9CD
S31510012A80E8DC179B4D460446894601323444072A31
S31510012A90CDE92624C9F80070C9F8046000F3BE8296
S31510012AA009F10809C6E4DDE90B1025AA179302F00E
S31510012AB003FB00287FF497AC279C179B0DF1C809DF
S31510012AC0CDE4DDE90B1025AA02F0F6FA00287FF411
S31510012AD08AAC279C0DF1C809D3E4102D269B044F0F
S31510012AE024DDDDE90BA8102609E000BF907E011058
S31510012AF0807E0110103D102D09F1080916DD0133F4
S31510012B001034072BC9E90076CDE92634F2DD25AA62
S31510012B105146404602F0D0FA00287FF464AC103DCD
S31510012B20102DDDE926340DF1C809E8DC01332C44FA
S31510012B30072BC9E90075CDE926347FF7C8ACDDE965
S31510012B400B1025AA02F0B8FA00287FF44CAC279C8A
S31510012B50BDE41F99002940F370820F9F129B9F427B
S31510012B60A8BF1F46002F0BDD269B01333C44072BC4
S31510012B70C9E900572794269300F3DD8309F1080963
S31510012B800F9E002FA8BFF61B002E00F388811F9BF6
S31510012B90129A934280F26F81139A14991444C9E9D7
S31510012BA00012269A27940132072A269200F3FE82F2
S31510012BB009F10809129A0F99D31A561A9E42A8BFFB
S31510012BC01E46002E0EDD269AC9F8046001320D4408
S31510012BD03444072AC9F800502794269200F3B78384
S31510012BE009F10809002EACBF9D1B1D46002D7FF76C
S31510012BF065AC102D269BAF4F7FF7A7AEDDE90BA86D
S31510012C00102605E009F10809103D102D7FF79DAE3C
S31510012C1001331034072BC9E90076CDE92634F1DDED
S31510012C2025AA5146404602F047FA00287FF4DBAB4D
S31510012C30DDE926340DF1C809E6E7CDF828A032AD55
S31510012C40FFF79DBB069BD9073FF5A1AE0123072EC2
S31510012C50CDE92664C9F80050C9F804307FF7C8AE2B
S31510012C60DDE90B1025AA02F027FA00287FF4BBAB89
S31510012C70DDE926640DF1C808BAE6129B012B7FF730
S31510012C80B7AE112B8B4F40F37182DDF830A01025B2
S31510012C9007E008F10808A9F11009B9F1100F40F37E
S31510012CA0658201361034072EC8E90075CDE9266410
S31510012CB0EFDD0B9925AA504602F0FEF900287FF4A4
S31510012CC092ABDDE926640DF1C808E4E7DDE90B10E6
S31510012CD025AA02F0F1F900287FF485AB279C0DF1A6
S31510012CE0C809FFF7D8BBDDE90B1025AA02F0E4F9F4
S31510012CF000287FF478ABDDE926640DF1C80850E6AB
S31510012D00DDE90B1025AA02F0D7F900287FF46BAB89
S31510012D10DDE926640DF1C80850E60D939BF80030E5
S31510012D20FFF73DBA32ADFFF72ABB17F040021CBFC1
S31510012D300A469BB20121FFF7F2BADDE910010246FC
S31510012D400B4604F0B7FC002840F06D83BAF1FF3F43
S31510012D5028F0200600F00A83472E04D1BAF1000F9D
S31510012D6008BF4FF0010ADDE9101247F48070002AFE
S31510012D700690C0F2358200230E93DDE91034CDE9B9
S31510012D801A34B8F1650F00F0008300F33082B8F100
S31510012D90450F00F0FA8223AB049320AB03931FABCC
S31510012DA00293022300930C98CDF804A0DDE91A23AF
S31510012DB000F058FFF907054640F1B18000EB0A040F
S31510012DC0DDE91A010022002304F042FC002840F03C
S31510012DD03082239BA34206D230215A1C23921970AA
S31510012DE0239B9C42F9D81F9A0F925B1B472E129375
S31510012DF000F09A80B8F1660F40F09C800F9A07F0A8
S31510012E000103002A43EA0A0340F36C82002B40F0C7
S31510012E1024830F9B07930A934FF066081FE2FC0663
S31510012E2078D4780676D50D9B099A1B681A8079E4B1
S31510012E30214B159317F0200200F0A8800D9B073344
S31510012E4023F0070319465A6851F8083B0D91F90703
S31510012E5040F1998053EA020100F0958030218DF8F6
S31510012E6078108DF8798047F002070221FFF757BADB
S31510012E70124B1593DEE7069AD0077FF59BAE8BE6CC
S31510012E800C98402100F0A8FB0B9B186018610028D4
S31510012E9000F0C1820B9A40235361FFF750B9102EEF
S31510012EA0269B044F40F36F8122464FF01008DDE94F
S31510012EB00B4A0BE0907E0110EC7B0110007C011097
S31510012EC009F10809103E102E40F35C8101331032CE
S31510012ED0072BC9E90078CDE92632F1DD25AA21466D
S31510012EE0504602F0E9F800287FF47DAADDE9263282
S31510012EF00DF1C809E6E72846FCF722FF20EAE07340
S31510012F000D940A909DF877400697B24607930F964F
S31510012F10FFF73CBA0D9B099A1B681A6002E4239BC2
S31510012F201B1A12931F9B0F930F9BDA1C80F285813C
S31510012F30A8F102080F9B8DF88480591E00291F9154
S31510012F40B6BFC3F101012B232D2309298DF8853035
S31510012F5000F39E81302330318DF8863004238DF8AD
S31510012F6087101693129A169B012A13440A9340F35B
S31510012F7016820A9B139A13440A9323EAE37307935F
S31510012F8000230F936BE10221FFF7C9B90D9951F88F
S31510012F90043B0D9117F010017FF459AF17F0400261
S31510012FA01CBF9BB20A4652E7CDE90687B44E32AD35
S31510012FB04FF0050E991841F10001A6FB010727F004
S31510012FC0030000EB9700091A581A9846944662F1C5
S31510012FD000034FF0CC3202FB00F206FB0322A0FBEA
S31510012FE0063003F001070244A7FB0E074018B8F19B
S31510012FF00A0F4FEA530300F130007CF1000C43EA4B
S31510013000C27305F8010D4FEA5202D3D2DDE90687E4
S3151001301032AB5B1B06970A93FFF7B1B9DDE90B10CB
S3151001302025AA179302F048F800287FF4DCA9279CFB
S31510013030179B0DF1C809FFF7FDB9269B914AC9F8EF
S315100130400020013301340122072B27942693C9F856
S31510013050042000F3B88009F10809002952D1069B12
S31510013060129A03F0010313433FF428AA139B1499F0
S315100130701A19C9E90013269B27920133072B2693A8
S3151001308000F3398109F108091299C9F80050013381
S315100130908C18072BCDE92634C9F804107FF70CAA32
S315100130A05EE4DDE90B1025AA02F006F800287FF48C
S315100130B09AA9279C0DF1C809FFF755BBDDE90B103D
S315100130C025AA01F0F9FF00287FF48DA9279C0DF19F
S315100130D0C809FFF7DAB9DDE90B1025AA01F0ECFFF3
S315100130E000287FF480A9279C0DF1C809FFF751BB71
S315100130F05346062B28BF0623634D0A930D94079357
S31510013100FFF786B9139B14981A19C9E90003269B70
S3151001311027920133072B269300F3ED8009F1080955
S315100131200029B1DA4E421031584F80F24181DDE962
S315100131300BA8102405E009F10809103E102E40F3E2
S31510013140378101331032072BC9E90074CDE92632D4
S31510013150F1DD25AA5146404601F0AEFF00287FF465
S3151001316042A9DDE926320DF1C809E6E701364C44DC
S31510013170072ECDE92664C8F80070C8F804907FF7C9
S3151001318035AC6DE5144601333444072BCDE92634AD
S31510013190C9F80070C9F8046000F3BB8009F1080989
S315100131A0F5E42D248DF87740FFF7CDB9DDE90B1045
S315100131B025AA01F081FF00287FF415A91F9B279CE2
S315100131C00DF1C809F6E4DDE90B1025AA01F074FF2B
S315100131D000287FF408A91F99279C0DF1C8093CE71F
S315100131E002F100431B932D231A910E93C9E5B8F1F1
S315100131F0660F7FF4D0ADCDF81CA00323009323AB4B
S31510013200049320AB079C03931FAB019402930C9874
S31510013210DDE91A2300F026FDB8F1660F05460444D0
S315100132207FF4CEAD2B78302B00F0E7801F9B1C442A
S31510013230C6E51F9A0F922346D7E59A45FFF678AE53
S31510013240129B0F9A934200F3CB80FE070F9B00F15E
S31510013250FB8023EAE37207920A934FF067080E9BED
S31510013260002B62D02D238DF877304FF0000AFFF72F
S315100132708EB8DDE90B1025AA01F01EFFFFF7B3B8D2
S31510013280CDCCCCCC1C7C0110147C0110907E01108D
S315100132900DF193048D4E23461846A6FB0123DB0838
S315100132A003EB8302A1EB4202303200F8012C0A46ED
S315100132B0632A194600F1FF33EEDC303103F8011CA5
S315100132C0831EA34280F0FE800DF1850213F8011BC7
S315100132D002F8011FA342F9D142AB181AA0F17103EA
S315100132E016933FE6002B40F0D080012307934FF051
S315100132F066080A93B3E7DDE90B1025AA01F0DCFE97
S3151001330000287FF470A8DDE926321F990DF1C8094E
S3151001331006E7DDE90B1025AA01F0CEFE00287FF4A1
S3151001332062A8279C0DF1C80931E4DDF838A09DF893
S315100133307740FFF72BB8DDE90B1025AA01F0BCFE8B
S3151001334000287FF450A8279C0DF1C80918E4DDE97F
S315100133500B1025AA01F0B0FE00287FF444A81F9B8C
S31510013360129A279CD31A0DF1C8093BE44FF0060AAD
S31510013370F9E40D94CDF81CA0CDF828A09DF877405E
S31510013380069782460F90FFF701B80AF101030793DA
S31510013390022333E793464FF0000AFEF703BF17F0F7
S315100133A001020F927FF4E5AD23EAE373079356E723
S315100133B001333244072BCDE92632C9F80070C9F81A
S315100133C004607FF75FAEDDE90B1025AA01F074FEEC
S315100133D000287FF408A8DDE926320DF1C80953E665
S315100133E0DDE9123213440F9A0A93002A41DD23EACA
S315100133F0E37307934FF0670831E7DDE91A010022FD
S31510013400002304F025F900284BD01F9B0F931C4471
S31510013410631B1293F2E40C9A0C2313604FF0FF33E3
S315100134200993FEF7E5BF119B294D002BB8BF2D243B
S3151001343027F080030693A8BF9DF87740254BB8BFA8
S315100134408DF87740FFF784B8139A13440A9323EA49
S31510013450E37307934FF0670801E7139B0AEB030821
S3151001346008EB02030A9323EAE37307934FF0660806
S31510013470F5E60F9B0A9AC3F101031A4422EAE27395
S315100134800A9207934FF06708E9E6139B03F10108C7
S3151001349008EB0A030A9323EAE37307934FF06608CE
S315100134A0DDE6079BC3F101031F931C4488E40D99C4
S315100134B09BF8013051F804AB0D9193464AEAEA7A2A
S315100134C0FEF76DBE022316934CE500BFCDCCCCCCD6
S315100134D0E87B0110E47B011088420ED98B188342D8
S315100134E00BD900EB020C002A6ED0624613F801CDFF
S315100134F002F801CD9942F9D170470F2A0FD8034628
